:020000040800F2
:1000000000000320251D0008091D00080B1D000825
:100010000D1D00080F1D0008111D00080000000044
:10002000000000000000000000000000131D000898
:10003000151D000800000000171D0008191D00080C
:10004000751D0008751D0008751D0008751D000848
:10005000751D0008751D0008751D0008751D000838
:10006000751D0008751D0008751D0008751D000828
:10007000751D0008751D0008751D0008751D000818
:10008000751D0008751D0008751D0008751D000808
:10009000751D0008751D0008751D0008751D0008F8
:1000A000751D0008751D0008751D0008751D0008E8
:1000B000751D0008751D0008751D0008751D0008D8
:1000C000751D0008751D0008751D0008751D0008C8
:1000D000751D0008751D0008751D0008751D0008B8
:1000E000751D0008751D0008751D0008751D0008A8
:1000F000751D0008751D0008751D0008751D000898
:10010000751D0008751D0008751D0008751D000887
:10011000751D0008751D0008751D0008751D000877
:10012000751D0008751D0008751D0008751D000867
:10013000751D0008751D0008751D0008751D000857
:10014000751D0008751D0008751D0008751D000847
:10015000751D0008751D0008751D0008751D000837
:10016000751D0008751D0008751D0008751D000827
:10017000751D0008751D0008751D000800000000B1
:10018000751D0008751D0008751D0008751D000807
:10019000751D0008751D0008751D0008751D0008F7
:0C01A000751D0008751D0008751D000885
:1001AC0010B5054C237833B9044B13B10448AFF3A5
:1001BC0000800123237010BD3C04002000000000CF
:1001CC00441F000808B5034B1BB103490348AFF3A8
:1001DC00008008BD0000000040040020441F0008FF
:1001EC0053B94AB9002908BF00281CBF4FF0FF3192
:1001FC004FF0FF3000F074B9ADF1080C6DE904CE8E
:10020C0000F006F8DDF804E0DDE9022304B07047E5
:10021C002DE9F047089E0D4604468846002B4DD12B
:10022C008A42944668D9B2FA82F252B101FA02F3C8
:10023C00C2F1200120FA01F10CFA02FC41EA030898
:10024C0094404FEA1C45210CB8FBF5FE1FFA8CF7C5
:10025C0005FB1E8341EA03430EFB07F199420BD9C0
:10026C001CEB03030EF1FF3080F01E81994240F22B
:10027C001B81AEF1020E63445B1AA4B2B3FBF5F022
:10028C0005FB103344EA034400FB07F7A7420AD9E5
:10029C001CEB040400F1FF3380F00881A74240F20C
:1002AC00058164440238E41B40EA0E4000211EB173
:1002BC00D4400023C6E90043BDE8F0878B4208D93F
:1002CC00002E00F0EE800021C6E900050846BDE8CE
:1002DC00F087B3FA83F100294AD1AB4202D38242B0
:1002EC0000F2F980841A65EB030301209846002E76
:1002FC00E2D0C6E90048DFE702B9FFDEB2FA82F2CB
:10030C00002A40F09180A1EB0C054FEA1C471FFA24
:10031C008CFE0121B5FBF7F307FB1350250C45EAC6
:10032C0000450EFB03F0A84208D91CEB050503F1B0
:10033C00FF3802D2A84200F2CB8043462D1AA4B259
:10034C00B5FBF7F007FB105544EA05440EFB00FE25
:10035C00A64508D91CEB040400F1FF3502D2A645D2
:10036C0000F2BB802846A4EB0E0440EA03409EE753
:10037C00C1F120078B4022FA07FC4CEA030C20FA4F
:10038C0007F405FA01F31C43FD404FEA1C4900FA3F
:10039C0001F3B5FBF9F8200C1FFA8CFE09FB18557C
:1003AC0040EA054508FB0EF0A84202FA01F20BD90F
:1003BC001CEB050508F1FF3A80F08880A84240F25A
:1003CC008580A8F1020865442D1AA4B2B5FBF9F09A
:1003DC0009FB105544EA054500FB0EFEAE4508D955
:1003EC001CEB050500F1FF346CD2AE456AD902381E
:1003FC00654440EA0840A0FB0294A5EB0E05A5421B
:10040C00C846A64656D353D05EB1B3EB080265EB93
:10041C000E0505FA07F722FA01F3CD401F43C6E992
:10042C0000750021BDE8F087C2F1200320FA03F12A
:10043C000CFA02FC25FA03F395400D434FEA1C47D6
:10044C001FFA8CFEB3FBF7F107FB11302B0C43EAC0
:10045C00004301FB0EF0984204FA02F408D91CEB9D
:10046C00030301F1FF382FD298422DD9023963448E
:10047C001B1AADB2B3FBF7F007FB103345EA03458B
:10048C0000FB0EF3AB4208D91CEB050500F1FF385D
:10049C0016D2AB4214D902386544ED1A40EA014138
:1004AC0038E73146304607E78646E5E61846FAE671
:1004BC004B45A9D2B9EB020864EB0C0E0138A3E74B
:1004CC004046EAE7204694E74146D1E7D0467BE731
:1004DC00023B654432E7084609E76444023842E7C8
:1004EC00704700BF10B504460E4B18784FF47A7362
:1004FC00B3FBF0F30C4A1068B0FBF3F000F0A2F879
:10050C0068B90F2C01D901200AE0002221464FF0D6
:10051C00FF3000F05FF8054B1C60002000E001206C
:10052C0010BD00BF000000200800002004000020C7
:10053C0008B50B4B1A6842F400721A601A6842F440
:10054C0080621A601A6842F480721A60032000F00C
:10055C002FF80F20FFF7C6FF01F0B4FB002008BDF9
:10056C00003C0240034A1168034B1B780B44136098
:10057C00704700BF5804002000000020014B186891
:10058C00704700BF5804002038B50446FFF7F6FF4B
:10059C000546B4F1FF3F02D0044B1B781C44FFF717
:1005AC00EDFF401BA042FAD338BD00BF0000002075
:1005BC00074AD36823F4E0631B041B0C000200F40D
:1005CC00E060034343F0BF6343F40033D3607047F0
:1005DC0000ED00E000B5194BDB68C3F30223C3F157
:1005EC00070CBCF1040F28BF4FF0040C03F1040EF0
:1005FC00BEF1060F18D9033B4FF0FF3E0EFA0CFC70
:10060C0021EA0C0199400EFA03F322EA0303194381
:10061C0000280BDB0901C9B200F1604000F5614014
:10062C0080F800135DF804FB0023E5E700F00F00F1
:10063C000901C9B2024B1954F4E700BF00ED00E008
:10064C0014ED00E00138B0F1807F0BD24FF0E023C5
:10065C005861054AF02182F8231000209861072286
:10066C001A6170470120704700ED00E000230F2B4A
:10067C0000F2F18070B582B061E085685E00032401
:10068C00B44025EA0405CC68B4402C43846045682A
:10069C0025EA02054C68C4F300129A402A434260D2
:1006AC005BE0DC08083450F8246003F00702950086
:1006BC000F22AA4026EA020E0A69AA4042EA0E025A
:1006CC0040F824205DE0092200E0002202FA0EF23C
:1006DC002A430234604D45F82420604A94686FEA3E
:1006EC000C0224EA0C054E6816F4801F01D04CEA6B
:1006FC0004055A4CA560E46802EA04054E6816F439
:10070C00001F01D04CEA0405544CE560646802EA11
:10071C0004054E6816F4003F01D04CEA04054F4C1A
:10072C006560246822404D6815F4803F01D04CEA86
:10073C0004024A4C226001330F2B00F28A80012202
:10074C009A400C6804EA020C32EA0404F3D14C68B7
:10075C0004F00304013C012C8FD94A6802F0030217
:10076C00032A09D0C4685D000322AA4024EA0204CB
:10077C008A68AA402243C2604A6802F00302022A35
:10078C008FD004684FEA430E032202FA0EF224EAD9
:10079C0002044A6802F0030202FA0EF222430260DB
:1007AC004A6812F4403FC6D0002201922C4A546C85
:1007BC0044F480445464526C02F480420192019AD5
:1007CC009C08A51C244A52F8255003F003024FEA5A
:1007DC00820E0F2202FA0EF225EA0205214A9042FD
:1007EC003FF473AF02F58062904222D002F5806232
:1007FC00904220D002F5806290421ED002F58062B9
:10080C0090421CD002F5806290421AD002F58062B0
:10081C00904218D002F58062904216D002F58062A8
:10082C00904214D002F5806290423FF44CAF0A2201
:10083C004CE701224AE7022248E7032246E704225A
:10084C0044E7052242E7062240E707223EE708225A
:10085C003CE702B070BD704700380140003C0140DD
:10086C0000380240000002400AB18161704709045F
:10087C0081617047F0B54D680468E368C3F30B43BE
:10088C001D444FEAC21C04EBC214D4F8883003F4A4
:10089C007043C4F888300B680468E668C6F30B46EE
:1008AC003344013304EBC21443EA0543C4F88830E3
:1008BC00CD680468E368C3F30A031D4404EBC21E4D
:1008CC00DEF88C3003F47043CEF88C308B680468FF
:1008DC00E668C6F30A063344013304EBC21443EA58
:1008EC000543C4F88C30036803EBC213D3F894406F
:1008FC0024F00704C3F89440036803EBC2130C699B
:10090C00C3F8944091F8317091F832508E690468B4
:10091C0004EBC21404F1840ED4F89C300024CEF8FD
:10092C00184091F8303043EA072343EA0543056841
:10093C0005EBC21543EA0663C5F89C30036803EB6C
:10094C00C213D3F8985025F0FF05C3F898500368EC
:10095C0003EBC2134D69C3F89850036803EBC21341
:10096C00D3F8A05025F4E06525F00705C3F8A05096
:10097C000D6A036803EBC213CE693543C3F8A0506C
:10098C00036803EBC213D3F8AC50C3F8AC40036854
:10099C0003EBC2124B6AC2F8AC300C696CB1012C7F
:1009AC003BD0042C3BD0022C08D0032C39D0072C84
:1009BC0001D0012402E0022400E004240268624415
:1009CC00D2F8B03003F0E023C2F8B0308B6A04FBED
:1009DC0003F54B680A689B1A04FB03F303330268A4
:1009EC00624443EA0543C2F8B03003686344D3F869
:1009FC00B42022F4FF6222F00702C3F8B42003688B
:100A0C006344CA6AC3F8B42003689C44DCF884309D
:100A1C0043F00103CCF88430F0BD0324CEE702246C
:100A2C00CCE70224CAE70000002875D010B50446B4
:100A3C0090F8A130002B6AD0022384F8A1302268F0
:100A4C00936923F07043936121688A696368A06895
:100A5C000343E06803432069034313438B6121681C
:100A6C008A682E4B1A408A6020688268A169D4F883
:100A7C0014C041EA0C410A4382602168CA681A40DA
:100A8C00CA602068C268216AD4F81CC041EA0C41D3
:100A9C000A43C26021680A691A400A612068026927
:100AAC00A16AD4F824C041EA0C410A4302612168CE
:100ABC004A6913404B61E06A21684B69226B42EA38
:100ACC00004213434B6194F8350094F836301B0404
:100ADC002168CA6A02F07F42CA622168CA6A43EA84
:100AEC00002394F8340003431343CB622268536B06
:100AFC0043F0060353632268936943F00103936147
:100B0C000020C4F8A400012384F8A13010BD80F8A3
:100B1C00A03000F073FF8FE70120704700F800F061
:100B2C00F8B590F8A030012B2CD004460D46164693
:100B3C00012780F8A070022380F8A1304FF0340C0C
:100B4C000CFB020C0CF1380C8E46BEE80F00ACE826
:100B5C000F00BEE80F00ACE80F00BEE80F00ACE8D9
:100B6C000F00DEF80030CCF8003032462946204623
:100B7C00FFF780FE23685F6284F8A170002084F880
:100B8C00A000F8BD0220FCE710B582B00023019351
:100B9C00194B1A6C42F080521A641B6C03F0805390
:100BAC000193019B154B01221A64FFF7E7FC0446E5
:100BBC00134B5B6813F4803F08D1FFF7DFFC001B7D
:100BCC00B0F57A7FF4D9032002B010BD0B4B012293
:100BDC005A64FFF7D3FC0446094B5B6813F4003FDF
:100BEC0007D1FFF7CBFC001BB0F57A7FF4D90320BB
:100BFC00EAE70020E8E700BF0038024000000E42A0
:100C0C0000700040002800F0E08170B582B004460E
:100C1C00036813F0010F3BD09F4B9B6803F00C0350
:100C2C00042B2CD09C4B9B6803F00C03082B21D07D
:100C3C006368B3F5803F4FD0B3F5A02F52D0964BDD
:100C4C001A6822F480321A601A6822F480221A6020
:100C5C006368002B50D0FFF791FC05468E4B1B6848
:100C6C0013F4003F14D1FFF789FC401B6428F5D91D
:100C7C000320B1E1884B5B6813F4800FD8D0864B0E
:100C8C001B6813F4003F03D06368002B00F09F81B6
:100C9C00236813F0020F54D07F4B9B6813F00C0F9A
:100CAC003ED07D4B9B6803F00C03082B33D0E368DC
:100CBC00002B68D0794B01221A60FFF75FFC0546C8
:100CCC00754B1B6813F0020F54D1FFF757FC401BF8
:100CDC000228F5D903207FE16F4A136843F480336F
:100CEC001360B5E76C4B1A6842F480221A601A68DC
:100CFC0042F480321A60ABE7FFF740FC0546664BC6
:100D0C001B6813F4003FC3D0FFF738FC401B64286A
:100D1C00F5D9032060E1604B5B6813F4800FC6D1FA
:100D2C005D4B1B6813F0020F03D0E368012B40F0FE
:100D3C005081594A136823F0F803216943EAC1032F
:100D4C001360236813F0080F42D063696BB3534BE5
:100D5C000122C3F8802EFFF711FC05464E4B5B6F4A
:100D6C0013F0020F34D1FFF709FC401B0228F5D910
:100D7C00032031E1484A136823F0F803216943EA60
:100D8C00C1031360DDE7454B00221A60FFF7F6FB49
:100D9C000546414B1B6813F0020FD2D0FFF7EEFB58
:100DAC00401B0228F5D9032016E13C4B0022C3F866
:100DBC00802EFFF7E3FB0546374B5B6F13F0020FFA
:100DCC0006D0FFF7DBFB401B0228F5D9032003E11B
:100DDC00236813F0040F77D02F4B1B6C13F0805F3C
:100DEC0033D1002301932C4B1A6C42F080521A64BD
:100DFC001B6C03F080530193019B0125284B1B684E
:100E0C0013F4807F23D0A368012B34D0052B38D06A
:100E1C00214B1A6F22F001021A671A6F22F004029A
:100E2C001A67A368002B3DD0FFF7A8FB06461A4BA8
:100E3C001B6F13F0020F46D1FFF7A0FB801B41F292
:100E4C0088339842F3D90320C6E00025D6E7144A2C
:100E5C00136843F480731360FFF790FB0646104B46
:100E6C001B6813F4807FCED1FFF788FB801B022810
:100E7C00F5D90320B0E0084A136F43F00103136760
:100E8C00CFE7054B1A6F42F004021A671A6F42F053
:100E9C0001021A67C5E700BF003802400000474254
:100EAC0000700040FFF76AFB0646524B1B6F13F0B5
:100EBC00020F08D0FFF762FB801B41F28833984287
:100ECC00F3D9032088E0EDB9A369002B00F08380EF
:100EDC00484A926802F00C02082A51D0022B17D013
:100EEC00454B00221A66FFF749FB0446414B1B6831
:100EFC0013F0007F42D0FFF741FB001B0228F5D90D
:100F0C00032069E03B4A136C23F080531364DBE746
:100F1C00394B00221A66FFF731FB0546354B1B682F
:100F2C0013F0007F06D0FFF729FB401B0228F5D9F0
:100F3C00032051E0E369226A1343626A43EA821395
:100F4C00A26A5208013A43EA0243E26A43EA0263A4
:100F5C00284A5360284B01221A66FFF70FFB044600
:100F6C00244B1B6813F0007F06D1FFF707FB001B17
:100F7C000228F5D903202FE000202DE000202BE0E3
:100F8C00012B2BD01B4B5B6803F48001E26991426F
:100F9C0026D103F03F02216A8A4223D1616A47F6C7
:100FAC00C0721A40B2EB811F1ED103F44031A26A09
:100FBC005208013AB1EB024F18D103F07063E26AA8
:100FCC00B3EB026F14D1002006E001207047012022
:100FDC0002E0012000E0002002B070BD0120FBE720
:100FEC000120F9E70120F7E70120F5E70120F3E7FD
:100FFC000120F1E7003802400000474208B5254BBC
:10100C009B6803F00C03042B3FD0082B3FD1214BE2
:10101C005A6802F03F025B6813F4800F12D01D4B2C
:10102C005968C1F388111C480023A1FB0001FFF78C
:10103C00D7F8184B5B68C3F3014301335B00B0FB7B
:10104C00F3F025E0134B5968C1F3881C4FEA4C119F
:10105C00B1EB0C006EEB0E0E4FEA8E1343EA90636D
:10106C008101091A63EB0E03DB0043EA5173C900DB
:10107C0011EB0C0C43F10003990200234FEA8C2076
:10108C0041EA9C51FFF7ACF8D3E7034800E0034872
:10109C0008BD00BF0038024040787D010024F400F8
:1010AC00002800F09B8070B50D4604464F4B1B6822
:1010BC0003F00F038B4208D2CBB24C4A1370136867
:1010CC0003F00F038B4240F08B80236813F0020F68
:1010DC0017D013F0040F04D0454A936843F4E0533F
:1010EC009360236813F0080F04D0414A936843F4CB
:1010FC00604393603E4A936823F0F003A1680B436E
:10110C009360236813F0010F32D06368012B21D058
:10111C009A1E012A25D9364A126812F0020F61D0A4
:10112C0033498A6822F0030213438B60FFF726FAD7
:10113C0006462F4B9B6803F00C036268B3EB820FDF
:10114C0016D0FFF71BFA801B41F288339842F0D976
:10115C00032042E0264A126812F4003FE0D101203D
:10116C003BE0234A126812F0007FD9D1012034E011
:10117C001E4B1B6803F00F03AB4207D9EAB21B4BA3
:10118C001A701B6803F00F03AB422DD1236813F0C8
:10119C00040F06D0164A936823F4E053E1680B431E
:1011AC009360236813F0080F07D0114A936823F457
:1011BC006043216943EAC1039360FFF71FFF0C4BA7
:1011CC009B68C3F303130B4AD35CD8400A4B1860DB
:1011DC000A4B1868FFF786F9002070BD0120704794
:1011EC000120FAE70120F8E70120F6E7003C024075
:1011FC00003802405C1F000808000020040000209A
:10120C0030B583B00446036813F0430F15D123683F
:10121C0013F00C0F6AD1236813F0200F40F0BF803D
:10122C00236813F0100F00F0238194F82C20914BBD
:10123C00C3F8E021002003B030BD8F4B00229A662A
:10124C00FFF79CF905468D4B1B6813F0006F06D019
:10125C00FFF794F9431B022BF5D90320EBE7236826
:10126C0013F0010F07D06268A3681B0743EA8213CF
:10127C00824AC2F88430236813F0020F15D07F4ADB
:10128C00D2F884106068E3681B0643EA801301F00F
:10129C00E0410B43C2F88430D2F88C3023F01F03AA
:1012AC00E16901390B43C2F88C30236813F0400F0D
:1012BC000AD06268E3681B0643EA8213A26843EA19
:1012CC0002736E4AC2F884306B4B01229A66FFF7A8
:1012DC0055F90546694B1B6813F0006F97D1FFF762
:1012EC004DF9401B0228F5D90320A4E7624B0022DC
:1012FC001A67FFF743F90546604B1B6813F0005F54
:10130C0006D0FFF73BF9431B022BF5D9032092E7DC
:10131C00236813F0040F16D0584AD2F888102069AD
:10132C0063691B0643EA801301F0E0410B43C2F8EA
:10133C008830D2F88C3023F4F853216A013943EA0F
:10134C000123C2F88C30236813F0080F14D04B4AD9
:10135C00D2F88830216903F0706343EA8113A169E4
:10136C0043EA0173C2F88830D2F88C3023F440334E
:10137C00616A0B43C2F88C303F4B01221A67FFF7AE
:10138C00FDF805463D4B1B6813F0005F7FF443AF3F
:10139C00FFF7F4F8401B0228F4D903204BE7002395
:1013AC000193364B1A6C42F080521A641B6C03F09A
:1013BC0080530193019B324A136843F4807313608A
:1013CC00FFF7DCF805462E4B1B6813F4807F06D123
:1013DC00FFF7D4F8401B0228F5D903202BE7274B45
:1013EC001B6F13F4407314D0A26A02F440729A4239
:1013FC000FD0224B1A6F22F440721F490120C1F802
:10140C00400E0020C1F8400E1A671B6F13F0010F3D
:10141C0012D1A36A03F44072B2F5407F1DD0174A73
:10142C00936823F4F813936014490B6FA26AC2F308
:10143C000B0213430B67F3E6FFF7A0F805460F4BBF
:10144C001B6F13F0020FE4D1FFF798F8401B41F229
:10145C0088339842F3D90320EDE608498A6822F4D0
:10146C00F81223F0704323F4407313438B60DBE7D3
:10147C000020E0E6001047420000474200380240DE
:10148C0000700040E0B138B50D46044690F82C30A1
:10149C008BB1022384F82C30214651F8040B00F058
:1014AC004CF862682946206800F082F8012384F821
:1014BC002C30002038BD80F82D3000F0C9F9E8E759
:1014CC000120704738B5044690F82C30D8B2022869
:1014DC0019D00D46012801D0052813D1022384F818
:1014EC002C302946206800F0BCF82B68022B04D065
:1014FC00012384F82C30002005E0052384F82C30DF
:10150C00002000E0012038BD10B5044690F82C30C6
:10151C00D8B2022805D094F82C30DBB2012B01D0C4
:10152C00012010BD022384F82C30206800F0BFF895
:10153C00012384F82C300020F3E710B40B68D3B9E6
:10154C00026822F4FF4222F07F024B688C6823432E
:10155C00CC6823430C6923434C6923438C69234394
:10156C00CC6923430C6A2343496A0B43134303603E
:10157C00002010BC7047036823F4F843CA690C6A56
:10158C0022434C6A224313430360426822F4FF4215
:10159C0022F07F024B688C682343CC6823430C6990
:1015AC0023434C69234389690B4313434360DFE7AF
:1015BC0052BB826802F070420B68013BD1F804C048
:1015CC000CF1FF3C43EA0C13D1F808C00CF1FF3CC2
:1015DC0043EA0C23D1F80CC00CF1FF3C43EA0C336A
:1015EC00D1F810C00CF1FF3C43EA0C43D1F814C005
:1015FC000CF1FF3C43EA0C538969013943EA01635E
:10160C001343836000207047836823F4700323F432
:10161C007043CA6802F1FF3C4A69013A120542EA7A
:10162C000C3213438360C26802F070420B68013BBA
:10163C00D1F804C00CF1FF3C43EA0C13D1F808C0FC
:10164C000CF1FF3C43EA0C23D1F810C00CF1FF3C29
:10165C0043EA0C438969013943EA01631343C360CC
:10166C00D0E770B50446154603699B0D9B050A68C7
:10167C00486802438868013842EA4012C96842EA65
:10168C00412213432361FEF779FF0646A36913F049
:10169C00200F0AD0B5F1FF3FF8D025B1FEF76EFF51
:1016AC00801BA842F2D9032000E0002070BD4369E2
:1016BC0023F47F5323F03E0343EA410343610020AC
:1016CC007047000000B587B0002301930293039389
:1016DC00049305931E4B1B6813B107B05DF804FB14
:1016EC0001211B4B1960002300931A4B9A6B0A4380
:1016FC009A639B6B0B400093009B0D230193022379
:10170C0002930391032304930C23059301A912481C
:10171C00FEF7ACFF4CF20373019301A90F48FEF7DF
:10172C00A5FF4FF68373019301A90D48FEF79EFFA9
:10173C004FF63F03019301A90A48FEF797FF48F2C1
:10174C003713019301A90848FEF790FFC5E700BFC6
:10175C005C0400200038024000080240000C0240EB
:10176C0000100240001402400018024000B585B081
:10177C00009010230193029103924FF4805269461A
:10178C000348FFF79FFE00B1012005B05DF804FB94
:10179C006004002008B5002201210846FFF7E6FF8F
:1017AC004FF4FA70FEF7F0FE002201210220FFF741
:1017BC00DDFF002208210320FFF7D8FF4FF40C7245
:1017CC0001210420FFF7D2FF08BD000000B589B04D
:1017DC0000230193029303930493059306930793B9
:1017EC0019481A4A02604360012282600822C260D2
:1017FC0010210161402141614FF4C0718161C361CD
:10180C004FF4006303624FF4805343624FF4005370
:10181C00836202230193029206220392049205939F
:10182C000693079301A9FFF72DFE48B9FFF7B2FF06
:10183C0040F2AB210448FFF767FE09B05DF804FBEA
:10184C0000F094F9F2E700BF60040020400100A012
:10185C0008B5FFF737FF08BD00B58FB0002209921D
:10186C000A920B920C920D9201922F4B196B41F430
:10187C0080711963196B01F48071019101990292C5
:10188C00196B41F020011963196B01F020010291D1
:10189C0002990392196B41F080011963196B01F0E5
:1018AC008001039103990492196B41F004011963AF
:1018BC00196B01F00401049104990592196B41F024
:1018CC0040011963196B01F04001059105990692CD
:1018DC00196B41F010011963196B01F0100106919D
:1018EC0006990792196B41F008011963196B01F005
:1018FC0008010791079908921A6B42F002021A63C9
:10190C001B6B03F002030893089B2023099301230C
:10191C000A930B9303230C9309A90448FEF7A6FE24
:10192C000FB05DF804FB00BF003802400004024019
:10193C0010B59AB008230E934FF4B473129302248B
:10194C0014944FF4803317930EA8FFF759FC3422EC
:10195C00002101A800F02EFA2648274B0360002333
:10196C0043608360C36003611322426184619F22E0
:10197C00C2611622026240F29F42426240F26E2223
:10198C00826240F23F52C26240F27A22026380F8D5
:10199C00343080F8353080F83630FFF745F818BB16
:1019AC00002201924FF48061029103924FF416735E
:1019BC00049302200590FF20069007924FF4C0601C
:1019CC00089009904FF040400A900B910C938DF8C1
:1019DC0034208DF835208DF8362001A90548FFF705
:1019EC009FF820B91AB010BD00F0C0F8D8E700F08D
:1019FC00BDF8F7E7940400200068014030B58DB0C5
:101A0C00002400943A4B5A6C42F080625A645A6C2F
:101A1C0002F080620092009A01941A6B42F4000268
:101A2C001A631A6B02F400020192019A02941A6B67
:101A3C0042F002021A631A6B02F002020292029A3C
:101A4C0003941A6B42F020021A631A6B02F0200204
:101A5C000392039A04941A6B42F040021A631A6BB5
:101A6C0002F040020492049A05941A6B42F0800230
:101A7C001A631A6B02F080020592059A06941A6B8F
:101A8C0042F480721A631B6B03F480730693069BFB
:101A9C002023079301230893099303250A9507A98B
:101AAC001448FEF7E3FD4FF4806307930223089379
:101ABC0009940A950E230B9307A90F48FEF7D6FD40
:101ACC004FF40C63079307A90C48FEF7CFFD4FF4B6
:101ADC007E43079307A90A48FEF7C8FD40F2F76357
:101AEC00079307A90748FEF7C1FD0DB030BD00BF35
:101AFC00003802400004024000140240001802406A
:101B0C00001C02400020024030B40C4C4FF4403515
:101B1C002560039DA563E0632364029B636392B21B
:101B2C0042EA01426264236843F001032360034BE1
:101B3C001B6813F0010FFAD130BC704700B00240A3
:101B4C0000B583B08C4611461A4600EB8C20400041
:101B5C00BDF81030019302230093C1F5806300F1AE
:101B6C004040FFF7D1FF03B05DF804FB72B6FEE70F
:101B7C0000B595B03022002108A800F01BF9002315
:101B8C00039304930593069307930193234A116CD3
:101B9C0041F080511164126C02F080520192019A52
:101BAC0002931F4B1A6842F440421A601B6803F4FC
:101BBC0040430293029B012308934FF48033099313
:101BCC0002230E934FF480020F924FF4B4721192D1
:101BDC001922109212930823139308A8FFF712F8F6
:101BEC00B0B9FEF7D1FFA8B90F23039302230493D6
:101BFC00002305934FF4A05306934FF4805307939F
:101C0C00052103A8FFF74CFA30B915B05DF804FBB9
:101C1C00FFF7ACFFFFF7AAFFFFF7A8FF0038024061
:101C2C000070004000B583B0FEF782FCFFF7A0FF08
:101C3C00FFF712FEFFF77CFEFFF7C8FD0122202103
:101C4C001F48FEF711FE4FF6FF7300934FF4167307
:101C5C004FF4806200210846FFF772FF1F240094A6
:101C6C00F02328228C214FF4BE70FFF769FF0094FB
:101C7C00DC232822A0214FF4E670FFF761FF0094CB
:101C8C004FF48C73282264214FF40770FFF758FF30
:101C9C0000944FF48273282278214FF41B70FFF7C5
:101CAC004FFF0023009301234FF4BE7211464FF4F3
:101CBC00AA70FFF745FF4FF4FA70FEF765FCFAE7E0
:101CCC000004024082B0002100910B4B5A6C42F48C
:101CDC0080425A645A6C02F480420092009A01913C
:101CEC001A6C42F080521A641B6C03F080530193FF
:101CFC00019B02B0704700BF00380240FEE7FEE7D0
:101D0C00FEE7FEE7FEE770477047704708B5FEF741
:101D1C0029FC08BD70470000DFF834D00D480E498F
:101D2C000E4A002302E0D458C4500433C4188C4229
:101D3C00F9D30B4A0B4C002301E013600432A2428E
:101D4C00FBD3FFF7E7FF00F011F8FFF76BFF7047CD
:101D5C0000000320000000203C040020841F000829
:101D6C003C04002040050020FEE7000070B50D4E3D
:101D7C000D4D761BB61006D0002455F8043B0134EB
:101D8C009847A642F9D1094E094D761B00F0D4F8BC
:101D9C00B61006D0002455F8043B01349847A642EF
:101DAC00F9D170BD781F0008781F0008801F00084B
:101DBC00781F0008830730B548D0541E002A3FD046
:101DCC00CAB2034601E0013C3AD303F8012B9D074C
:101DDC00F9D1032C2DD9CDB245EA05250F2C45EAB6
:101DEC00054536D9A4F1100222F00F0C03F1200E98
:101DFC00E6444FEA121C03F1100242E9045542E991
:101E0C00025510327245F8D10CF1010214F00C0F8E
:101E1C0003EB021204F00F0C13D0ACF1040323F00B
:101E2C0003030433134442F8045B9342FBD10CF0DC
:101E3C0003042CB1CAB21C4403F8012B9C42FBD105
:101E4C0030BD64461346002CF4D1F9E70346144622
:101E5C00BFE71A46A446E0E7024B13B1024800F074
:101E6C0005B8704700000000851E000800230146DD
:101E7C001A46184600F01AB838B5084B084D5B1BCB
:101E8C009C1007D0043B1D44013C55F8043998477D
:101E9C00002CF9D1BDE8384000F054B8841F00087C
:101EAC00801F0008704700BF704700BF2DE9F04746
:101EBC00DFF87CA00646DAF8000098460F469146FB
:101ECC00FFF7F0FF1B4B1B68D3F8484124B3656840
:101EDC001F2D26DC5EB96B1C0235DAF8000063603E
:101EEC0044F82570FFF7E0FF0020BDE8F08704EB15
:101EFC0085010123C1F88890D4F88821AB401A439E
:101F0C00022EC4F88821C1F80881E4D1D4F88C21C0
:101F1C001343C4F88C31DEE703F5A674C3F84841CB
:101F2C00D5E7DAF80000FFF7BFFF4FF0FF30DCE732
:101F3C00380400206C1F0008F8B500BFF8BC08BCC2
:101F4C009E467047F8B500BFF8BC08BC9E4670476B
:101F5C00000000000000000001020304060708094D
:041F6C001000002041
:081F7000ACE2FF7F010000005C
:081F7800651E0008D1010008FC
:041F8000AD010008A7
:101F840001000000100000000024F4000000000024
:101F940000000000FC02002064030020CC030020A9
:101FA400000000000000000000000000000000002D
:101FB400000000000000000000000000000000001D
:101FC400000000000000000000000000000000000D
:101FD40000000000000000000000000000000000FD
:101FE40000000000000000000000000000000000ED
:101FF40000000000000000000000000000000000DD
:1020040000000000000000000000000000000000CC
:1020140000000000000000000000000000000000BC
:1020240000000000000000000000000000000000AC
:10203400000000000000000001000000000000009B
:102044000E33CDAB34126DE6ECDE05000B00000060
:10205400000000000000000000000000000000007C
:10206400000000000000000000000000000000006C
:10207400000000000000000000000000000000005C
:10208400000000000000000000000000000000004C
:0C23B40000000000000000003C050020BC
:0400000508001D25AD
:00000001FF
